:020000040800F2
:1000000000000820CD9500081D9600081D960008E8
:100010001D9600081D9600081D96000800000000AF
:100020000000000000000000000000006D950008C6
:100030001D960008000000006F95000871950008EB
:100040001D9600081D9600081D9600081D960008C4
:100050001D9600081D9600081D9600081D960008B4
:100060001D9600081D9600081D9600081D960008A4
:100070001D9600081D9600081D9600081D96000894
:100080001D9600081D9600081D9600081D96000884
:100090001D9600081D9600081D9600081D96000874
:1000A0001D9600081D9600081D9600081D96000864
:1000B0001D9600081D9600081D9600081D96000854
:1000C0001D9600081D9600081D9600081D96000844
:1000D0001D9600081D9600081D9600081D96000834
:1000E0001D9600081D9600081D9600081D96000824
:1000F0001D9600081D9600081D9600081D96000814
:100100001D9600081D9600081D9600081D96000803
:100110001D9600081D9600081D9600081D960008F3
:100120001D9600081D9600081D9600081D960008E3
:100130001D9600081D9600081D9600081D960008D3
:100140001D9600081D9600081D9600081D960008C3
:100150001D9600081D9600081D9600081D960008B3
:100160001D9600081D9600081D9600081D960008A3
:100170001D9600081D9600081D960008000000004E
:100180001D9600081D9600081D9600081D96000883
:100190001D9600081D9600081D9600081D96000873
:1001A0001D9600081D9600081D9600081D96000863
:1001B0001D9600081D9600081D9600081D96000853
:1001C0001D9600081D960008000000001D960008FE
:1001D0001D9600081D9600081D9600081D96000833
:1001E0001D9600081D9600081D9600081D96000823
:0801F0001D9600081D96000891
:1002000010B5054C237833B9044B13B10448AFF350
:1002100000800123237010BD780000200000000042
:1002200058A500080C4B43B10C480D4910B5AFF36D
:1002300000800C48036823B910BD0A48036833B92D
:100240007047094B002BF7D0BDE810401847064B0C
:10025000002BF5D0184700BF0000000058A500088B
:100260007C000020780000200000000053B94AB94B
:10027000002908BF00281CBF4FF0FF314FF0FF30AE
:1002800000F07AB9ADF1080C6DE904CE00F006F883
:10029000DDF804E0DDE9022304B070472DE9F04702
:1002A0008C460D460446089E002B51D18A421746C3
:1002B0006DD9B2FA82FEBEF1000F0BD0CEF1200C48
:1002C00001FA0EF520FA0CFC02FA0EF74CEA050CC6
:1002D00000FA0EF44FEA174A250CBCFBFAF81FFA95
:1002E00087F90AFB18CC45EA0C4508FB09F3AB4239
:1002F0000AD9ED1908F1FF3280F02381AB4240F2B8
:100300002081A8F102083D44ED1AA4B2B5FBFAF031
:100310000AFB105544EA054400FB09F9A14509D937
:10032000E41900F1FF3380F00A81A14540F2078112
:1003300002383C44A4EB090440EA08400021002EA6
:1003400061D024FA0EF4002334607360BDE8F087B6
:100350008B4207D9002E54D0002186E821000846A0
:10036000BDE8F087B3FA83F1002940F08E80AB42FC
:1003700002D3824200F2FA80841A65EB0305012061
:10038000AC46002E3FD086E81010BDE8F08712B9C9
:100390000127B7FBF2F7B7FA87FEBEF1000F34D1A1
:1003A000EB1B3A0C1FFA87FC0121B3FBF2F8250C7A
:1003B00002FB183345EA03450CFB08F3AB4207D9AF
:1003C000ED1908F1FF3002D2AB4200F2D180804635
:1003D000ED1AA3B2B5FBF2F002FB105543EA054457
:1003E0000CFB00FCA44507D9E41900F1FF3302D24D
:1003F000A44500F2B8801846A4EB0C0440EA08407B
:100400009DE731463046BDE8F087CEF1200405FA7D
:100410000EF307FA0EF720FA04F83A0C25FA04F462
:1004200048EA0308B4FBF2F14FEA184502FB114415
:100430001FFA87FC45EA044501FB0CF3AB4200FAC6
:100440000EF409D9ED1901F1FF3080F08A80AB423A
:1004500040F2878002393D44EB1A1FFA88F5B3FB5E
:10046000F2F002FB103345EA034500FB0CF3AB420C
:1004700007D9ED1900F1FF386FD2AB426DD90238C0
:100480003D44EB1A40EA01418FE7C1F1200722FA0F
:1004900007F88B4005FA01F448EA030320FA07FE47
:1004A0004FEA134CFD404EEA040EB5FBFCF94FEA4F
:1004B0001E440CFB19551FFA83F844EA054509FB55
:1004C00008F4AC4202FA01F200FA01FA08D9ED1878
:1004D00009F1FF3043D2AC4241D9A9F102091D44D0
:1004E0002D1B1FFA8EFEB5FBFCF00CFB10554EEADF
:1004F000054400FB08F8A04507D9E41800F1FF35D2
:1005000029D2A04527D902381C4440EA0940A4EB6F
:100510000804A0FB02894C45C6464D4615D312D0AF
:1005200056B1BAEB0E0364EB050404FA07F7CB40AF
:100530001F43CC40376074600021BDE8F087184647
:10054000F8E69046E0E6C245EAD2B8EB020E69EB67
:1005500003050138E4E72846D7E7404691E781469E
:10056000BEE7014678E702383C4445E7084608E71D
:10057000A8F102083D442BE7704700BF10F8012B9B
:1005800011F8013B012A28BF9A42F7D0D01A7047D0
:10059000034613F8012B002AFBD1181A01387047C3
:1005A00001F0FF01102A2BDB10F0070F08D010F824
:1005B000013B013A8B422DD010F0070F42B3F6D128
:1005C000F0B441EA012141EA014122F007047FF041
:1005D00000070023F0E80256083C85EA010586EA98
:1005E000010685FA47F5A3FA87F586FA47F6A5FAD4
:1005F00087F68EB9EED1F0BC01F0FF0102F00702E0
:1006000032B110F8013B013A83EA010313B1F8D18A
:100610000020704701387047002D06BF354603386B
:10062000073815F0010F07D1013015F4807F02BFA4
:10063000013015F4C03F0130F0BC0138704700BFF5
:1006400010B504460E4B18784FF47A73B3FBF0F3F1
:100650000C4A1068B0FBF3F000F08AF868B90F2C70
:1006600001D9012010BD002221464FF0FF3000F0DB
:100670004FF8034B5C60002010BD012010BD00BF8F
:10068000000000201000002008B5032000F02EF824
:100690000020FFF7D5FF08F021FF002008BD000073
:1006A000034A1168034B1B780B441360704700BF6B
:1006B0005006002000000020014B1868704700BF62
:1006C0005006002038B50446FFF7F6FF0546B4F1A2
:1006D000FF3F02D0044B1B781C44FFF7EDFF401B8B
:1006E0008442FAD838BD00BF000000200649CB681C
:1006F00023F4E0631B041B0C000200F4E0600343DE
:10070000024A1A43CA60704700ED00E00000FA0593
:1007100030B4144BDB68C3F30223C3F10704042C89
:1007200028BF04241D1D062D13D9033B012505FAFE
:1007300004F4013C2140994005FA03F3013B1340C6
:100740001943002807DB0901C9B2074B195430BC13
:1007500070470023EAE700F00F000901C9B2034B1C
:100760001954F4E700ED00E000E400E014ED00E0CF
:100770000138B0F1807F0AD2064B5860F021064A5A
:1007800082F823100020986007221A607047012029
:10079000704700BF10E000E000ED00E0042805D045
:1007A000054A136823F0040313607047024A136874
:1007B00043F004031360704710E000E0704708B591
:1007C000FFF7FCFF08BD00005079137943EA0023CE
:1007D00007480B50D07893781B0443EA00635078A5
:1007E00043EA002312781343024A8B50704700BF3C
:1007F0004080024044800240016841F218028B5858
:1008000043F400538B507047016841F218028B5833
:1008100043F002038B50704770B59EB0044629B177
:100820004FF40063C3604FF480438360E369002B9F
:1008300068D14FF48063079321680B68374A1A40E8
:10084000A368E06803430798034343F4007313432A
:100850000B6023681D680120FFF734FF23681D60CB
:10086000236840225A6023685D680120FFF72AFF51
:1008700023685D60236800259D602368DD60226831
:10088000936923F0BE031B041B0C43F080039361A8
:1008900023689E690120FFF715FF23689E61236886
:1008A000DD612368DD690120FFF70CFF2368DD614E
:1008B000216841F218054B59194A1A40194B134344
:1008C0004B5123685E590120FFF7FCFE23685E51FF
:1008D000236803F58053144A1A60236803F5805394
:1008E0001D680120FFF7EEFE236803F580531D60AD
:1008F000A369012B09D0626900212046FFF764FF3C
:100900001EB070BD0023079396E7216841F21C02D8
:100910008858064B03438B50EDE700BF0F8120FF43
:10092000233FDEF8040020028020C10240000100C5
:1009300010B582B00446002301930268136843F0A7
:100940000803136003681B6801930120FFF7BAFED8
:100950002368019A1A6002B010BD10B582B0044637
:10096000002301930268136843F0040313600368D3
:100970001B6801930120FFF7A5FE2368019A1A6006
:1009800002B010BD30B583B0054600230193026864
:1009900041F21804135943F48013135103681B598F
:1009A00001930120FFF78EFE2B68019A1A5103B0C4
:1009B00030BDF0B490F84540012C31D0012480F8CE
:1009C0004540022480F84440C162002401E0F960FF
:1009D00001349C4217D265014F194FF480164E51D5
:1009E00040F2F45606FB0426BE60C6691EB94E5995
:1009F00046F440064E515D1EAC42E8D2651C01EB48
:100A00004515FD60E4E7026841F21003D15001236F
:100A100080F84430002380F845301846F0BC704719
:100A20000220FBE7F0B490F84540012C2ED00124C1
:100A300080F84540022480F844408162002401E0AF
:100A4000E96001349C4214D266018D194FF00047D1
:100A50008F5144F2F4566E6040F2F45606FB0426C1
:100A6000AE605E1EB442EBD2661C01EB4616EE6031
:100A7000E7E7026841F20C03D150012380F84430CB
:100A8000002380F845301846F0BC70470220FBE791
:100A900090F84530012B00F08780012380F8453025
:100AA000022380F8443099B1C36A1A68002A17DB20
:100AB00030B440F2F45291421AD93C4CA4FB0124C8
:100AC000A40A40F2F45202FB141292B1013410E075
:100AD000012380F84430002280F8452018467047F2
:100AE000122380F84430002380F8453001207047FD
:100AF0000124012C01D0002337E01A6842F0405253
:100B00001A60C36AC1F30C015960C26A136843F0EA
:100B100000431360C36ADB68C362036841F21402D6
:100B20009A5812F0040F08D0042141F2140299508F
:100B30000268002141F20403D150012380F84430BF
:100B4000002380F84530184630BC7047C56A2A68D3
:100B500042F080522A6011E0C56A2A6842F00042E1
:100B60002A60C26AD268C26201339C42D5D9C56A82
:100B70002A6822F040522A60002BE7D0C26A40F275
:100B8000F4555560621E9342E6D1C56A2A6842F068
:100B900000522A60064A02FB041202F2F452C56AAD
:100BA000C2F30C026A60D7E7022070470BB002ACB8
:100BB0000CFAFFFF90F84530012B40D0012380F85C
:100BC0004530022380F84430836A1A68002A28DB03
:100BD0001A6812F4807F19D0826B01328263012A75
:100BE00012D043631A68C2F30D42043AC263026B27
:100BF00092680264DB688362012380F8443000233A
:100C000080F84530184670470363EAE71A6812F423
:100C1000007F0ED003630022426301228263DB68FF
:100C20008362012380F84430002280F84520184672
:100C30007047826B01328263DB688362F1E70220D6
:100C40007047F8B590F84430DBB2822B01D1022016
:100C5000F8BD16460546822380F8443002681469C0
:100C600004F01C04038ADB029BB21C43890101F4DB
:100C7000F8610C4344F001041461FFF71DFD0746C1
:100C800014F0010F10D0FFF717FDC01BB0F5803F27
:100C900002D22B681C69F3E7012385F84430002356
:100CA00085F845300320F8BD2B685B699BB2336043
:100CB000012385F844300020F8BD90F84430DBB2C1
:100CC000422B01D10220704770B50546422380F8BF
:100CD00044300068046904F01C042B8ADB029BB2D8
:100CE0001C43890101F4F8610C4344F0030492B2FF
:100CF00042612B681C61FFF7DFFC064614F0010F10
:100D000010D0FFF7D9FC801BB0F5803F02D22B68D2
:100D10001C69F3E7012385F84430002385F845304A
:100D2000032070BD012385F84430002070BD000011
:100D300070B582B000230193002800F00C810446B6
:100D400090F84430002B32D0844B5A6C42F48042ED
:100D50005A645B6C03F480430093009B804B5A6899
:100D600022F400025A605A68216A0A435A602368D2
:100D700003F580531A6842F001021A60FFF79CFCE9
:100D80000546236803F58052126812F0010F13D054
:100D9000FFF792FC401BB0F5FA7FF2D9032584F8E7
:100DA0004450002384F84530284602B070BD80F8D6
:100DB000453008F069F9C7E71D6925F01C0500F00A
:100DC0003BFD684B0344684A934255D845F00805FB
:100DD00023681D614FF4004200212046FFF76DFF9C
:100DE0000546002860D1FF20FFF76CFC6368002BEC
:100DF00000F09180FFF760FC064601AA0121204621
:100E0000FFF71FFFFFF758FC801B41F28833984221
:100E100052D8019B13F0040FEFD04FF48052002101
:100E20002046FFF74AFF002852D1FFF745FC06464F
:100E300001AA01212046FFF704FFFFF73DFC801BBC
:100E400041F2883398424BD8019B13F0200FEFD02A
:100E500001AA10212046FFF7F4FE00284CD1019B87
:100E600013F0040F50D04FF40062E26013F0020F51
:100E70004DD00023A3605EE03C4B03443C4A9342C8
:100E800002D845F00C05A3E73A4B03443A4A934293
:100E90009ED93A4B03443A4A934202D845F004059E
:100EA00096E745F0100593E701212046FFF7B4FCD3
:100EB000012584F8445077E701212046FFF7ACFC78
:100EC000012384F84430002384F8453003256BE780
:100ED00001212046FFF7A0FC012584F8445063E778
:100EE00001212046FFF798FC012384F844300023B9
:100EF00084F84530032557E701212046FFF78CFC95
:100F0000012584F844504FE70022E260AEE74FF439
:100F10008043A3600FE0E368C3F3CF02A368C3F389
:100F20004F031A4300212046FFF7C7FE58B940F689
:100F3000FF70FFF7C7FB00212046FFF76DFC012380
:100F400084F8443030E701212046FFF765FC012595
:100F500084F8445028E7012526E700BF0038024006
:100F60000038014000D3CEFEBFE1E40040F1E9FDCE
:100F70003F787D0100796CFCFF596202001F0AFA7C
:100F80007FF0FA0238B590F84530012B01D10220EC
:100F900038BD0446012580F84550022380F84430CE
:100FA000FFF7C6FC2046FFF7D8FC2046FFF7EAFC17
:100FB0002046FFF721FC2046FFF726FC84F844502A
:100FC000002084F8450038BDF0B583B0002437E038
:100FD000092600E0002606FA0EF6324302336C4E74
:100FE00046F823206B4B1A68EB4302EA03064F686E
:100FF00017F4803F01D045EA0206664A166052683F
:1010000003EA02064F6817F4003F01D045EA0206E2
:10101000604A5660926803EA02064F6817F4801F20
:1010200001D045EA02065B4A9660D26813404E68DA
:1010300016F4001F01D045EA0203564AD36001347A
:101040000F2C00F2A3800123A3400A6803EA0205E3
:10105000AB42F4D14A68122A18BF022A12D14FEAD1
:10106000D40E0EF1080E50F82E2004F00706B6003C
:101070000F27B74022EA07020F6907FA06F6324344
:1010800040F82E2006684FEA440E032202FA0EF2C0
:10109000D24316404F6807F0030707FA0EF73E43A6
:1010A00006604E68771E112E18BF012F01D9122E2F
:1010B0000FD186681640CF6807FA0EF73E43866068
:1010C000466826EA03034E68C6F30016A64033437B
:1010D0004360C3681A408B6803FA0EF31A43C26078
:1010E0004B6813F0805FAAD02B4B5A6C42F48042BD
:1010F0005A645B6C03F480430193019BA3089E1C1C
:10110000234A52F8262004F003064FEA860E0F26E3
:1011100006FA0EF622EA0602204FB8423FF45AAF12
:101120001F4EB04222D006F58066B04220D006F5B0
:101130008066B0421ED006F58066B0421CD006F52F
:101140008066B0421AD006F58066B04218D006F527
:101150008066B04216D006F58066B04214D006F51F
:101160008066B0423FF434AF0A2634E7012632E706
:10117000022630E703262EE704262CE705262AE779
:10118000062628E7072626E7082624E703B0F0BD51
:1011900000380140003C014000380240000002409D
:1011A0000004024012B909048161704781617047EF
:1011B00010B582B01B4B1A6C42F080521A641B6C43
:1011C00003F080530193019B174A136843F4803363
:1011D0001360FFF771FA0446134B5B6813F4803F0A
:1011E00008D1FFF769FA001BB0F57A7FF4D9032024
:1011F00002B010BD0C4A136843F400331360FFF7CC
:101200005BFA0446084B5B6813F4003F07D1FFF715
:1012100053FA001BB0F57A7FF4D90320E8E70020E9
:10122000E6E700BF0038024000700040002800F0F0
:10123000DC8170B582B00446036813F0010F3AD028
:10124000A24B9B6803F00C03042B2BD09F4B9B6895
:1012500003F00C03082B20D06368B3F5803F50D017
:10126000002B54D1994B1A6822F480321A601A6804
:1012700022F480221A606368002B5FD0FFF71CFA0B
:101280000546924B1B6813F4003F14D1FFF714FA84
:10129000401B6428F5D90320ACE18C4B5B6813F448
:1012A000800FD9D0894B1B6813F4003F03D06368CB
:1012B000002B00F09C81236813F0020F64D0834B55
:1012C0009B6813F00C0F4DD0804B9B6803F00C0310
:1012D000082B42D0E368002B79D07C4A136843F096
:1012E00001031360FFF7E8F90546784B1B6813F01C
:1012F000020F63D1FFF7E0F9401B0228F5D9032064
:1013000078E1724A136843F480331360B3E7B3F5AE
:10131000A02F09D06D4B1A6822F480321A601A6827
:1013200022F480221A60A6E7684B1A6842F48022F1
:101330001A601A6842F480321A609CE7FFF7BCF921
:101340000546624B1B6813F4003FB4D0FFF7B4F9B5
:10135000401B6428F5D903204CE15C4B5B6813F417
:10136000800FB7D1594B1B6813F0020F04D0E3680C
:10137000012B01D001203DE1544A136823F0F8030A
:10138000216943EAC1031360236813F0080F46D0B4
:10139000636983B34D4A536F43F001035367FFF70B
:1013A0008BF90546494B5B6F13F0020F37D1FFF7FE
:1013B00083F9401B0228F5D903201BE1434A136837
:1013C00023F0F803216943EAC1031360DCE73F4AD5
:1013D000136823F001031360FFF76EF905463B4BDA
:1013E0001B6813F0020FCFD0FFF766F9401B0228ED
:1013F000F5D90320FEE0354A536F23F0010353670C
:10140000FFF75AF90546314B5B6F13F0020F06D018
:10141000FFF752F9401B0228F5D90320EAE02368C0
:1014200013F0040F7ED0294B1B6C13F0805F31D179
:10143000264B1A6C42F080521A641B6C03F08053E6
:101440000193019B0125224B1B6813F4807F23D05D
:10145000A368012B34D0002B3CD11C4B1A6F22F017
:1014600001021A671A6F22F004021A67A368002BA0
:1014700046D0FFF721F90646144B1B6F13F0020FFD
:101480004FD1FFF719F9801B41F288339842F3D905
:101490000320AFE00025D6E70D4A136843F48073BC
:1014A0001360FFF709F90646094B1B6813F4807FA8
:1014B000CED1FFF701F9801B6428F5D9032099E00C
:1014C000024A136F43F001031367CFE7003802406D
:1014D00000700040052B09D0484B1A6F22F0010222
:1014E0001A671A6F22F004021A67BFE7434B1A6F9C
:1014F00042F004021A671A6F42F001021A67B5E758
:10150000FFF7DAF806463D4B1B6F13F0020F08D0C9
:10151000FFF7D2F8801B41F288339842F3D90320B9
:1015200068E0F5B9A369002B63D0344A926802F0F1
:101530000C02082A60D0022B19D0304A136823F01D
:1015400080731360FFF7B8F804462C4B1B6813F048
:10155000007F48D0FFF7B0F8001B0228F5D9032020
:1015600048E0264A136C23F080531364DAE7234AD9
:10157000136823F080731360FFF79EF805461F4B36
:101580001B6813F0007F06D0FFF796F8401B022877
:10159000F5D903202EE0E369226A1343626A43EA25
:1015A0008213A26A5208013A43EA0243E26A43EA1A
:1015B0000263226B43EA0273104A5360136843F0DC
:1015C00080731360FFF778F804460C4B1B6813F028
:1015D000007F06D1FFF770F8001B0228F5D9032021
:1015E00008E0002006E0002004E001207047012010
:1015F00000E0002002B070BD0120FBE7003802408F
:10160000F8B5314B9B6803F00C03042B59D0082B21
:1016100001D02E48F8BD2C4B5A6802F03F025B689F
:1016200013F4800F2AD0284B5B68C3F388131E463F
:1016300000275C010025E41A65EB0705A90141EAD2
:101640009461A001001B61EB0501CB0043EA5073DC
:10165000C400A01943EB07014B0243EAD0534402F4
:10166000204619460023FEF701FE174B5B68C3F3C3
:10167000014301335B00B0FBF3F0F8BD124B5B6834
:10168000C3F388131E4600275C010025E41A65EBAE
:101690000705A90141EA9461A001001B61EB050166
:1016A000CB0043EA5073C400A01943EB07018B023F
:1016B00043EA90538402204619460023FEF7D6FDE4
:1016C000D3E70348F8BD00BF003802400024F4000F
:1016D00000127A00002800F0A28070B50446524B38
:1016E0001B6803F00F038B420CD24F4A136823F0A0
:1016F0000F030B431360136803F00F03994201D0EB
:10170000012070BD236813F0020F17D013F0040FEF
:1017100004D0464A936843F4E0539360236813F07F
:10172000080F04D0414A936843F4604393603F4AF2
:10173000936823F0F003A068034393600D46236889
:1017400013F0010F31D06368012B20D0022B25D07C
:10175000364A126812F0020F63D034498A6822F0C8
:10176000030213438B60FEF7A7FF06462F4B9B68CF
:1017700003F00C036268B3EB820F16D0FEF79CFFF8
:10178000801B41F288339842F0D9032070BD274A6C
:10179000126812F4003FE0D1012070BD234A1268A4
:1017A00012F0007FD9D1012070BD1F4B1B6803F0E0
:1017B0000F039D420CD21C4A136823F00F032B43E6
:1017C0001360136803F00F039D4201D0012070BD28
:1017D000236813F0040F06D0144A936823F4E053EF
:1017E000E1680B439360236813F0080F07D00F4A9A
:1017F000936823F46043216943EAC1039360FFF7D0
:10180000FFFE0A4B9B68C3F30313094AD35CD8401D
:10181000084B18600020FEF713FF002070BD012068
:101820007047012070BD00BF003C024000380240FC
:1018300058B4000810000020014B1868704700BF22
:1018400010000020F0B583B00446036813F0010FC8
:101850000CD0B54B9A6822F400029A609A68416BEA
:101860000A439A60436BC3B1002700E00027236856
:1018700013F4002F15D0AC4AD2F88C3023F4401367
:10188000E16B0B43C2F88C30E36BB3F5801F06D0DD
:10189000002B00F04581002504E00127E7E7012740
:1018A000F6E70025236813F4801F0FD09E4AD2F874
:1018B0008C3023F44003216C0B43C2F88C30236C32
:1018C000B3F5800F00F02E8103B90125236813F0D2
:1018D000807F00D0012713F0200F40F0278123687C
:1018E00013F0100F0CD0904BD3F88C2022F08072A4
:1018F000C3F88C20D3F88C20A16B0A43C3F88C204A
:10190000236813F4804F08D0874AD2F8903023F42C
:101910004033616E0B43C2F89030236813F4004FDC
:1019200008D0814AD2F8903023F44023A16E0B43B3
:10193000C2F89030236813F4803F08D07A4AD2F876
:10194000903023F44013E16E0B43C2F890302368CB
:1019500013F4003F08D0744AD2F8903023F44003C7
:10196000216F0B43C2F89030236813F0400F08D06A
:101970006D4AD2F8903023F00303616C0B43C2F838
:101980009030236813F0800F08D0674AD2F8903067
:1019900023F00C03A16C0B43C2F89030236813F4BE
:1019A000807F08D0604AD2F8903023F03003E16C99
:1019B0000B43C2F89030236813F4007F08D05A4AD2
:1019C000D2F8903023F0C003216D0B43C2F8903061
:1019D000236813F4806F08D0534AD2F8903023F470
:1019E0004073616D0B43C2F89030236813F4006FAD
:1019F00008D04D4AD2F8903023F44063A16D0B43D8
:101A0000C2F89030236813F4805F08D0464AD2F8B9
:101A1000903023F44053E16D0B43C2F890302368BB
:101A200013F4005F08D0404AD2F8903023F44043CA
:101A3000216E0B43C2F89030236813F4800F08D056
:101A4000394AD2F8903023F08063A16F0B43C2F87B
:101A50009030236813F4001F0DD0334AD2F8903031
:101A600023F00063E16F0B43C2F89030E36FB3F1F2
:101A7000006F00F0C180236813F0080F00D001252B
:101A800013F4802F08D0284AD2F8903023F0407306
:101A9000616F0B43C2F89030236813F4000F09D034
:101AA000214AD2F8903023F08053D4F880100B43B1
:101AB000C2F89030236813F0806F09D01A4AD2F828
:101AC000903023F00053D4F884100B43C2F89030C8
:101AD000236813F0006F09D0134AD2F88C3023F03A
:101AE0000073D4F888100B43C2F88C30236813F0CD
:101AF000805F09D00C4AD2F88C3023F08063D4F890
:101B00008C100B43C2F88C30002F77D12368B3F1CF
:101B1000007F73D0002D40F00581002003B0F0BDA0
:101B20000125BFE60127CFE600380240B84B1A6C0A
:101B300042F080521A641B6C03F080530193019BA6
:101B4000B44A136843F480731360FEF7B5FD06468C
:101B5000B04B1B6813F4807F06D1FEF7ADFD801BF0
:101B60006428F5D90320D9E7A94B1B6F13F4407300
:101B700015D0226B02F44072934210D0A44B1A6F1E
:101B800022F44072196F41F480311967196F21F402
:101B9000803119671A671B6F13F0010F12D1236B85
:101BA00003F44072B2F5407F1DD0994A936823F444
:101BB000F813936096490B6F226BC2F30B02134329
:101BC0000B678CE6FEF778FD0646914B1B6F13F012
:101BD000020FE4D1FEF770FD801B41F2883398427A
:101BE000F3D903209AE78A48826822F4F8128A49D6
:101BF00019400A438260DDE701253CE7844A136807
:101C000023F080631360FEF757FD0646804B1B6888
:101C100013F0006F06D0FEF74FFD801B6428F5D946
:101C200003207BE7236813F0010F13D0636B8BB99C
:101C3000774AD2F88430D2F88410606803F44033D5
:101C400043EA801301F070610B43A16843EA01731A
:101C5000C2F88430236813F4002F03D0E26BB2F58E
:101C6000801F43D013F4801F03D0236CB3F5800F83
:101C70003CD0236813F0807F11D0654AD2F88400ED
:101C8000D2F88410666823691B0443EA861300F0C7
:101C90007060034301F0E0410B43C2F884302368D5
:101CA00013F0007F0DD0626823691B0443EA82139E
:101CB000E26843EA0263A26843EA0273544AC2F844
:101CC0008430534A136843F080631360FEF7F4FCDA
:101CD00006464F4B1B6813F0006F7FF41BAFFEF7F7
:101CE000EBFC801B6428F4D9032017E7484AD2F89C
:101CF0008430D2F88410606803F4403343EA8013E0
:101D0000E06843EA006301F0E0410B43C2F884302D
:101D1000D2F88C3023F01F03616A01390B43C2F8FB
:101D20008C30A6E73A4A136823F080531360FEF71D
:101D3000C3FC0546364B1B6813F0005F06D0FEF768
:101D4000BBFC401B6428F5D90320E7E6236813F4A5
:101D5000002F01D0E26B22B113F4801F1DD0236C41
:101D6000DBB92B4AD2F88830D2F88810606903F4C6
:101D7000403343EA8013A06943EA006301F0E04185
:101D80000B43C2F88830D2F88C3023F4F853A16AA0
:101D9000013943EA0123C2F88C30236813F4001F91
:101DA00003D0E36FB3F1006F38D0236813F0080F4E
:101DB00019D0174AD2F88810D2F88830606903F435
:101DC000403343EA801301F070610B43E16943EA59
:101DD0000173C2F88830D2F88C3023F44033E16AC2
:101DE0000B43C2F88C300A4A136843F080531360E7
:101DF000FEF762FC0446064B1B6813F0005F20D11F
:101E0000FEF75AFC001B6428F5D9032086E600BFC4
:101E10000038024000700040FFFCFF0F0A4AD2F871
:101E20008800D2F888106569236A1B0443EA851389
:101E300000F07060034301F0E0410B43C2F88830CA
:101E4000B3E700206AE600BF00380240002918BF4F
:101E5000002818D070B506460D460C4C84B1616858
:101E60002846FEF78BFB08B12468F7E7A3683360C8
:101E7000E3687360E368B360F060237C337470BD23
:101E80006FF0050070BD6FF00F00704770A500087F
:101E9000704742688068101A704700002DE9F041D1
:101EA0000446C8B1E56AFDB13A4BD3F80080B8F1F9
:101EB000000F05D0384B1E6816B1384B1F681FBB8A
:101EC00005F111084046FEF763FB0446A62828D812
:101ED000112827D9112425E0314B40F2FB2231494A
:101EE000314807F0E3FBDDE72D4B40F2FD222F499F
:101EF0002D4807F0DBFBD7E7C02205F12201204681
:101F0000C047E881BDE8F0810024BC42D8DA56F829
:101F1000241005F11100FEF731FB0028ECD001344C
:101F2000F3E7112405F12206214F0FCFC5F8220057
:101F3000C5F82610C5F82A20C5F82E303B886B86D8
:101F40002246414605F1340007F09DFB04F13203BF
:101F50002B44991C174A1068C3F8020090889379A3
:101F600088808B7119342C44002384F82230304649
:101F7000FEF70EFB0446B0F5803F02D2EC81BDE8CF
:101F8000F081074B40F236320B49074807F08EFBD1
:101F9000F4E700BF58060020680600206006002015
:101FA00070B40008A8B40008B4B40008DCB4000899
:101FB000E8B40008FCB4000804B500082DE9F041BD
:101FC00005460E461F4690467AB1B8F80030002B01
:101FD0003DD0B5F86020934200D81A466C8E64005C
:101FE000A4B2A24213D8144611E01A4B4FF4047263
:101FF00019491A4807F05AFBE7E70124B0F1FF3FFF
:1020000014BF00230123012C98BF0023ABB13B4632
:1020100022463146284604F0CDFAB0F1FF3FEDD11B
:10202000B5F86030002BE8D0B5F86230082B02D844
:10203000C4F34F04E2E70124E0E720B10023A8F84D
:102040000030BDE8F081A8F80040BDE8F081002034
:10205000BDE8F08170B4000814B50008B4B40008FD
:102060002DE9F04182B007460E46CC6A5CB1B7F864
:102070006030ADF806302368B1698B420BD84FF061
:102080000008454638E0A84B4FF49662A749A84897
:1020900007F00CFBEBE75B1A4FF6FE7293421DDC78
:1020A0009BB202AA22F8023DF36A003318BF012353
:1020B0003846FFF783FF054698B9BDF80610B269A8
:1020C0000A44B261736A5B1A73624FF00108B7F891
:1020D00060308BB9404602B0BDE8F0814FF6FF7327
:1020E000DFE74FF00008F2E7226811783C291FD0A3
:1020F000013BA36001322260A368002B00F037810E
:10210000002D40F03481BDF80620002AE2D094F87A
:10211000E320042AF0D801A151F822F0E9200008B8
:102120003B2100087121000811220008C322000889
:10213000012184F8E310A181DAE7A18905290ED0F5
:10214000226892F800E07B48085C86450DD00021AB
:1021500084F8E310013BA36001322260CCE7002346
:10216000A381022384F8E330C6E70131A181F1E7BE
:10217000A2894AB921680878092818BF202817D0F1
:102180000A2815D00D2813D021680B782D2B14D0D8
:10219000202B12D0092B10D00A2B0ED00D2B0CD0D7
:1021A0000F2A31D8531CA3810B782244537408E0C2
:1021B000013BA360013121609EE74AB9002384F806
:1021C000E330A368013BA36023680133236093E7F6
:1021D000032384F8E330FF2A0BD8A3892374234414
:1021E00000225A7423681B782D2B0AD00023A38168
:1021F000E7E74D4B40F21B524F494D4807F056FA66
:10220000EBE70123A381DCE7002384F8E330D8E780
:10221000A2894AB921680878092818BF202812D055
:102220000A2810D00D280ED0216891F800E043480C
:10223000105C86450CD0013BA36001312160002376
:1022400084F8E33058E7013BA3600131216053E794
:10225000013BA36001312160022A02D00132A28138
:102260004AE73046FFF71AFE0023A381042384F8CF
:10227000E33023686360B1698B427FF63DAF5B1A40
:102280004FF6FE72934201DC9BB201E04FF6FF7302
:1022900002AA22F8023DF36A003318BF0123384630
:1022A000FFF78CFE054600287FF426AFBDF8062018
:1022B000B3691344B361736A9B1A73624FF00108E8
:1022C0001AE76368B1698B4224D95B1A4FF6FE7234
:1022D000934211DC9BB2ADF8063083B9002D7FF438
:1022E0000BAFBDF80610B2690A44B261736A5B1A9B
:1022F00073624FF00108FFE64FF6FF73EBE7F36AF6
:10230000003318BF01230DF106023846FFF756FED1
:102310000546E3E7A389E289934211D30023A38111
:1023200084F8E330E8E600BF70B40008DCB40008CD
:10233000B4B4000824B500082CB5000844B5000862
:10234000D11A02AA22F8021D2033E118012302311A
:102350003846FFF733FE054600287FF4CDAEA3894B
:10236000BDF806201344A3814FF00108C4E694F899
:10237000E330042B3FF4AEAE2368B1698B427FF6A5
:10238000A9AE5B1A4FF6FE72934218DC9BB202AA0A
:1023900022F8023DF36A003318BF01233846FFF7E5
:1023A0000DFE00287FF496AEBDF80620B3691344F5
:1023B000B361736A9B1A73624FF001088AE64FF6A5
:1023C000FF73E4E710B582B00C464B6A4FF6FE721D
:1023D000934216D89BB202AA22F8023DE36A003368
:1023E00018BF0123A169FFF7E9FD68B9BDF8061020
:1023F000A2690A44A261636A5B1A6362012002B0A7
:1024000010BD4FF6FF73E6E70020F8E718B108B5F6
:1024100000F02CFD08BD704710B50446406918B1A6
:10242000FFF736FD00236361E06A18B1FFF7EEFFA6
:102430000023E362206A18B101F0AEF800232362A2
:1024400010BD38B110B50446FFF7E6FF204600F096
:102450000DFD10BD7047000070B504460D461646D0
:10246000002101F0AEFD0021204601F0ADFD00216C
:10247000204601F0DBFD00221146204601F0F8FD68
:102480000021204601F0BAFD15B12846FFF7D9FF1B
:1024900056B9204602F026F9054648B104220549FE
:1024A000204601F0E5FD03E0204602F03FFA00255A
:1024B000284670BD9125000808B50022FFF7CCFF23
:1024C00008BD08B5FFF7F8FF08BD000038B50546A0
:1024D0000C46486960B1FFF7DCFC00280DDD0A4BB3
:1024E00040F2834209490A4807F0E0F8012038BD6C
:1024F0002846FFF7E6FF002038BD21462846FFF7B3
:10250000E0FF002038BD00BF70B4000848B50008E7
:10251000B4B4000870B529B30C4605464B6A53B1F4
:10252000E36A73B121462846FFF79AFD0646636ABF
:102530006BB1304670BDFFF7C9FF06460028EFD1EA
:10254000F7E721462846FFF73DFF0646EFE76069BB
:10255000FFF79FFC0028ECDC21462846FFF7B1FF7F
:102560000026E6E70026E4E750B108B50346084632
:10257000002283F828201946FFF7CCFF002008BD71
:102580000020704718B108B5FFF75BFF08BD704722
:1025900010B50C4680B1014690F828300133DBB20B
:1025A00080F82830042B0CD043691BB12046FFF77C
:1025B000B1FF50B9002010BD00212046FFF77CFF7D
:1025C000F8E72046FFF778FFF4E7204604F09AFB8F
:1025D000F0E7000070B505460C460C492160064640
:1025E000FFF734FC08B9304670BD09492160284620
:1025F000FFF72CFC0028F6D0064921602846FFF79B
:1026000025FC0028EFD000262660ECE780B5000806
:102610008CB5000898B50008F8B500293BD00746EE
:102620000C460B78002B38D0002510E020212046E6
:1026300007F054F810B1002202701EE006461CE0BC
:1026400005F11C03002247F82320013534460F2DE5
:10265000CCBF00230123002C08BF0023F3B105F1F8
:102660000C0347F823402621204607F037F806469A
:102670000028DBD0002306F8013B3D21204607F06F
:102680002DF80028DCD0002300F8013B05F11C03E5
:1026900047F82300D9E7002500E000252846F8BDCB
:1026A00010B5E42000F0BAFC044618B1E422002181
:1026B00006F0F4FF204610BD70B59DF810300029DB
:1026C0004BD00D4616460446BBB965612B68A36125
:1026D0006B68002B21DB6B686362002384F8283071
:1026E00063691B7C13F0010F1FD026B163691B7C4B
:1026F00013F0010F21D1002070BDFFF7D1FF00289A
:10270000E3D00022828180F8E3202A6802606A68B0
:1027100082602A684260E062D7E7134B40F6CF023E
:102720001249134806F0C2FFD5E70F4B40F6DF020F
:1027300010490F4806F0BAFFD7E7626A0E49A06950
:1027400000F0B7FA03460028D5D00433A2699A1ADC
:10275000A361636A9B1A6362CDE7002343618361CF
:10276000436280F82830C6E770B40008A4B50008BA
:10277000B4B40008C4B50008F0B500082DE9F04F66
:1027800085B00646039190460C460846FDF700FFCB
:1027900000284CD0471EE25D2F2A02D000273D467C
:1027A00047E0684A944205D03F2F28BF3F2737B9FA
:1027B000002428E00128F7D000273D4639E0614D8C
:1027C0003A462146284606F05EFF0023EB55EFE728
:1027D0005D4B53F834A05046FDF7DAFE594D4A469A
:1027E000814528BF02465146E81906F04CFFA9462C
:1027F00002E0554B53F83490354649463046FFF7D2
:1028000025FB50B10134042C0ED8002FF1D0D7F1A4
:102810003F09DDD1DFF82C91EEE7CDF80C904A4B63
:1028200003EBC404277904E000273D4601E00027BC
:102830003D467DB14FF00009002D7CD0CDF80490CD
:102840000097039B424629463046FFF735FF05B007
:10285000BDE8F08F3F21039806F040FF814610B19C
:10286000002309F8013B4FF0FF32384B1A60384B18
:102870001D682DB3374BD3F800A0BAF1000F1FD05D
:102880000024AC421CDA4FEAC40B5AF83410039807
:10289000FDF774FE08B10134F3E749463046FFF70F
:1028A000BBFE0146294B18602A4B1B689B44DBF892
:1028B000045006F1700306F130022046A847039049
:1028C000354603993046FFF7C1FA80B9002DB3D0E1
:1028D0003F21039806F002FF824608B100230370EF
:1028E000039F2E21384606F0F9FE04460BE003A9AB
:1028F0003046FFF76FFE0546E8E72E21601C06F024
:10290000EDFE27460446002CF7D1032C09D80E4BC8
:1029100003EB8403996A384600F0F5F948B10134B5
:10292000F3E70027BAF1000F86D03F238AF8003082
:1029300082E70127F6E703A93046FFF74BFE05467D
:102940007CE700BF9400002004B300085C06002070
:1029500054060020640600202DE9F0470C46054689
:10296000002852D0002C58D06369002B40F083809F
:10297000A369002B40F08380206A002855D02946A7
:1029800000F0ECFF284600F0D1FF206A0368002B1E
:102990004DD0058940F2FF339D4228BF1D463E4E73
:1029A00000232A46314601F0B5F8062D1FD9A94665
:1029B0002A463A49304600F07CF9C0B10422384931
:1029C000304606F099FE8246002833D106F103080E
:1029D000371D043DADB22A463249384600F069F948
:1029E000034668B3DD1B002B18BF434531D8206A6E
:1029F00000F092FF236A1B89B3F5806F43D205284C
:102A000045D96FF00F00BDE8F087274B40F27E728A
:102A10002649274806F04AFEA4E7234B40F27F727E
:102A20002449234806F042FE9EE72562AAE76E6825
:102A30006D89BAE7002333716FF00F00BDE8F087AE
:102A40002A461649384600F034F903464FF0010A89
:102A5000C8E74A461849304600F02BF90028C6D08E
:102A60000023F370ADB27B55524639462046FFF73E
:102A700085FEBDE8F0876FF00700BDE8F0876FF0D6
:102A80000700BDE8F0876FF00F00BDE8F0876FF03A
:102A90000400BDE8F08700BFD400002004B60008A1
:102AA00008B6000810B6000870B40008F8B50008B1
:102AB000B4B40008A8B40008F0B50008F8B505469D
:102AC0000E461446B2FA82F25209002B0CBF13468E
:102AD00042F0010353B948B12189304601F002FAAE
:102AE0006B698BB1204600F057FD0BE034B12189B2
:102AF000304601F0F7F9204600F04EFD29463046F9
:102B0000FFF7DAFC0020F8BD324629462046FFF7E1
:102B100023FF0746002818BF10F1050F07D010F15A
:102B2000080318BF012310F1100F00D0A3B917F14B
:102B3000050F05D0286A18B100F02EFD00232B6286
:102B4000204600F029FD7FB117F1100FDAD1294698
:102B50003046FFF7B1FCD5E7064B40F6B512064903
:102B6000064806F0A3FDE2E729463046FFF7D2FC0F
:102B7000C8E700BF70B4000814B60008B4B4000879
:102B800008B5B022002106F089FD08BD10B5B020BF
:102B900000F044FA044608B1FFF7F2FF204610BDEA
:102BA00010B50C46B1FA81F14909002A0CBF0A465A
:102BB00041F00102F2B90121204601F0ECF9FFF7E2
:102BC000E5FF0146C8B1C461204601F0FAF90C499D
:102BD000204601F0F9F90B49204601F027FA0422BA
:102BE0000949204601F044FA0849204601F006FA56
:102BF000002010BD6FF0050010BD4FF0FF3010BD7C
:102C0000BD2A0008852500089125000869250008CF
:102C100010B52E2001F072FF0446A0B1012120461C
:102C200001F0B9F950221449204601F065F890B935
:102C3000FF21204601F020F90446A0B10F492046AB
:102C400001F00EFA10BD0E4B4FF421620D490E48F3
:102C500006F02CFDE2E70A4B40F615220B490A4824
:102C600006F024FDE4E7064B40F617220849064823
:102C700006F01CFDE2E700BF44B40008A12B0008E9
:102C800070B4000840B60008B4B400085CB6000890
:102C900078B6000840BA80B27047030203F47F039D
:102CA00043EA0063020A02F47F42134343EA1060DE
:102CB00070472DE9F04106460D4690460846FDF75F
:102CC00067FCD0B10746344600E001342278BAB13F
:102CD000E31906EB08018B420CD82B789A42F4D109
:102CE0003A462946204606F007FD0028EDD1204649
:102CF000BDE8F0810020BDE8F0813046BDE8F081FC
:102D00000020BDE8F08130B402E02846214692B1AF
:102D1000451C02784C1C0B789A42F6D042F02000F9
:102D2000A0F16101C9B2192908D843F020039842E3
:102D3000EBD0012000E0002030BC70470120FBE711
:102D400008B500F077F800F04BFA00F09EFA04F0B6
:102D5000AFFB00F0CFFF04F025FB08BD10B5044623
:102D60002D4B1B68834231D82B4B5B689C4235D27C
:102D70002379002B3AD12388B3F5C86F3ED8264B70
:102D80001B6821885A1894420FD0107968B92248DC
:102D90004068824209D020488068824236D05A5A20
:102DA00022805A5A1A44E11A518061885A18944272
:102DB0000BD0107948B918488068844229D02088FF
:102DC000585221881944D31A4B8010BD134B40F23E
:102DD0005D121349134806F069FCC5E70F4B4FF429
:102DE000AF7211490F4806F061FCC1E70B4B40F28E
:102DF0005F120E490B4806F059FCBCE7074B4FF435
:102E0000B1720B49074806F051FCB8E7024A9460DA
:102E1000C5E701488260D2E7D40400205CB700080F
:102E20008CB70008B4B40008A4B70008C0B7000805
:102E3000DCB7000810B40B4B23F003030A4A1360FD
:102E40004FF4C86018800021598019711918516019
:102E500001240C71A3F84006488093605DF8044B90
:102E6000704700BF87060020D404002000283DD012
:102E700038B5044610F0030F28D11D4B1B689C4247
:102E800003D31B4B5B689C4206D31A4B40F2AF1234
:102E900019491A4806F00AFC154B1B689C4214D3CA
:102EA000134B5B689C4210D2A4F1080514F8043C53
:102EB000A3B1002304F8043C0D4B9B689D4201D252
:102EC0000B4B9D602846FFF749FF38BD094B4FF477
:102ED000D6720B49094806F0E9FBCEE7054B4FF4E3
:102EE000E0720849054806F0E1FBE2E7704700BFE1
:102EF000D40400205CB700082CB80008B4B4000863
:102F000008B8000844B80008F8B50546CC1CA4B2BF
:102F100024F00304A4B20B2C00D80C24B4F5C86F21
:102F20006DD8394B1B68AB4203D8374B5B689D4269
:102F300006D3364B4FF4FA723549364806F0B6FBE5
:102F4000314B1B689D425BD32F4A5268954257D242
:102F5000A5F10807FF1ABFB235F8086CF61BB6B228
:102F6000083EB6B2B44220D8B4424BD848D0264B23
:102F70001A6835F8083CD118087910BBD05AE31903
:102F80009BB208339BB2204CA468A14215D0D11843
:102F900000240C71D0524F8025F8083CD15AB1F56D
:102FA000C86F2DD00A4453802AE0184B40F2062205
:102FB0001949184806F07AFBD6E7D118124CA160DF
:102FC000E5E704F11403B3421AD8E3199BB20833BE
:102FD0009BB2D1180C488068814201D20A488160B6
:102FE0000020087135F8080CD0524F8025F8083CB5
:102FF000D15AB1F5C86F03D00A44538000E00025D0
:103000002846F8BD0025FBE7D40400205CB7000883
:1030100058B80008B4B4000870B80008002800F0E0
:1030200082800246033292B222F0030292B20B2A4D
:1030300000D80C22B2F5C86F77D8F8B53C4B1E68A3
:103040009B689B1B9BB245E001232371384B9B6817
:103050009C4211D025440835354B5B689D4220D8F1
:1030600014F0030525D1002D2BD104F10800F8BD83
:103070002F4A12681B8813441A791AB12C494968DF
:103080008B42F5D12A498B6049688B42E2D0002AF5
:10309000E0D0284B40F2CF222749284806F006FB13
:1030A000D8E7244B4FF435722549244806F0FEFA40
:1030B000D6E7204B40F2D6222249204806F0F6FA05
:1030C000D1E71C4B4FF436721F491C4806F0EEFA4C
:1030D000CBE723881F461546C2F5C860834220D23D
:1030E000F41820790028F4D1F15AC91B08398D420F
:1030F000EFD805F114008142A6D31A4492B20832E7
:1031000092B2B118002008712088B0524B80228002
:1031100001232371B35AB3F5C86F97D01E44728050
:1031200094E70020F8BD002070470020704700BFE2
:10313000D40400205CB7000890B80008B4B40008BC
:10314000ACB80008DCB800080CB9000810B58368FA
:103150001C687CB122681A6014F0030F01D120466C
:1031600010BD054B40F249120449054806F09EFA8D
:10317000204610BD002010BD30B9000860B900081D
:10318000B4B4000838B505460C4611F0030F05D15C
:10319000AB681B682360AB681C6038BD034B40F212
:1031A0009D120349034806F081FAF1E730B900089F
:1031B00084B90008B4B40008836800221A60436828
:1031C000033323F0030307E081680968196081680D
:1031D0000B6001880B44013241888A42F4DB70475E
:1031E00010B5002406E0054B53F82400FFF7E4FF78
:1031F0000134A4B2082CF6D910BD00BF44B30008B6
:1032000008B5082805D8074B53F82000FFF79EFFA4
:1032100008BD054B40F287120449054806F046FAFE
:10322000002008BD44B3000830B90008B8B9000850
:10323000B4B4000808B5082806D821B1064B53F8E5
:103240002000FFF79FFF08BD044B40F2DB1204494A
:10325000044806F02BFA08BD44B3000830B9000852
:10326000D8B90008B4B4000811F0010F0CD008B5AB
:10327000436823B190F82B3013F0080F00D108BD3C
:10328000011D04F01FFCFAE77047704770B582B06B
:103290000D46C1B10A68019242680199914210D06D
:1032A0000446061D01A9304601F04CFC01A9304638
:1032B00004F0A2F95DB12B68636001212046FFF79D
:1032C000D3FF02B070BD034A12680192E4E7002305
:1032D000F2E700BF44B4000811B10B68C360704747
:1032E0000023FBE711B10B68836070470023FBE705
:1032F000F8B5044617461E460D4609B10B6863B97A
:1033000029462046FFF7C2FF39462046FFF7EAFF6D
:1033100031462046FFF7E0FFF8BD1146FFF7E2FF18
:1033200031462046FFF7D8FF29462046FFF7AEFF7B
:10333000F8BD00002DE9F04104460E4617469846B8
:10334000079D15B300236360A360E36084F82B300E
:10335000032384F82030069BE361114A1378591C3B
:10336000117084F82E30089B236143463A4631465B
:103370002046FFF7BDFF2046A84768B9094B1A68E9
:1033800022601C602046BDE8F081074BFB22074904
:10339000074806F08BF9D5E70020BDE8F08100BFB3
:1033A000040500208C3B0020F4B9000828BA00086E
:1033B000B4B40008014B1860704700BF903B002078
:1033C00008B590F82B3013F0010F06D143F001033C
:1033D00080F82B3013F0040F00D108BD0321FFF754
:1033E00043FFFAE708B590F82B3013F0010F06D031
:1033F00003F0FE0380F82B3013F0080F00D108BD56
:1034000004F0ECFAFBE700000122014B1A70704750
:10341000943B002070B50C4616460546D8B1002DE9
:1034200018BF002C4DD0002C1DDBA2B22B7B69688D
:10343000032B18BF002B28D10B1B6B6005F110026A
:1034400093421FD3A4B26B8923446B812B891C4404
:103450002C81002070BD1D4B40F23F221C491D48AD
:1034600006F024F9DBE7A2B2524292B26B899A428B
:10347000DCD9164B40F247221749164806F016F9D8
:10348000012070BD6960012070BD013B9BB2012B22
:103490000ED8002C06DB002E18BF002C13DD091BF4
:1034A0006960CFE76B899A42F5D8091B6960C9E763
:1034B000064B40F277220949064806F0F7F801204A
:1034C00070BD002070BD012070BD00BF40BA000873
:1034D000F8B50008B4B4000870BA000890BA000843
:1034E00010B50022074B1A70074B1C6844B1206FBF
:1034F00008B9E468FAE700F044FD0023236710BD33
:1035000010BD00BF943B00209C3B002070B5049C84
:1035100004280AD8DFE800F01214030507000E2083
:103520000FE000200DE000200BE0134B40F2C5122D
:103530001249134806F0BAF8002070BD362000E0AA
:103540002220033020F003000E18BDF81450AE42C4
:1035500010D800251D6054B12044586002205873D3
:10356000198159811A730122DA81184670BD002031
:103570005860F3E7002070BD40BA0008A0BA000808
:10358000B4B4000808B50022FFF744FF08BD08B531
:103590000122FFF73FFF08BD70B528B10446037B49
:1035A000032B0BD800251FE0284B40F2D2222849DC
:1035B000284806F07BF80025284670BD234B40F2D2
:1035C000DE222549234806F071F8EBE71F4B40F255
:1035D000EB2222491F4806F069F80AE023692046D9
:1035E00098470135EDB23446002CE5D0E389002B35
:1035F000ECD0E389013B9BB2E38123BB2668237BAC
:10360000627B12F0020F0AD02369002BE6D10F4B28
:1036100040F2F92212490F4806F048F8DEE7032B82
:1036200007D0013B9BB2012B08D92046FFF71EFCB7
:10363000D7E721460820FFF7FDFDD2E72146072006
:10364000FFF7F8FDCDE70024CEE700BF40BA000841
:10365000F8B50008B4B40008C4BA0008DCBA000821
:10366000F4BA00082DE9F8430D46174604280AD895
:10367000DFE800F01214030507000E240FE0002419
:103680000DE000240BE0644B4FF48B7263496448F7
:1036900006F00CF80026B1E0362400E02224032FC7
:1036A00000F2AF80DFE807F07B9B9B020820FFF76A
:1036B000A7FD0646F8B107730023036004F1100369
:1036C0000344033323F0030343600581E21C22F02B
:1036D0000302C2F51472AA4228BF2A4692B242815E
:1036E000134400F51878434508D80123F381738902
:1036F000ED1AB14626E0FFF787FE7FE0464B4FF418
:1037000098724849464805F0D1FFEEE7FFF77CFE86
:103710003046FFF741FF264670E03F4B4FF4A6725C
:1037200041493F4805F0C2FF1EE03B4B4FF4A972F0
:103730003E493B4805F0BAFF24E00123E381638959
:10374000ED1AA146002D55DD0820FFF759FD04466E
:103750000028DBD00773002343730360C9F800001F
:103760004FF6FE739D42D8DCABB22381B3F5147FD4
:1037700028BF4FF41473638104F11003636013F0E6
:10378000030FD2D17368728913449845D5D2224B66
:1037900040F255122349224805F088FFCDE704F195
:1037A000130020F0030083B2EA1C90B220F0030063
:1037B000184480B222F0030290422BD3FFF72EFC74
:1037C0000646D8B104F110030344033323F0030386
:1037D0004360058145810023036007730AE00720E9
:1037E000FFF70EFD064648B1002343600581458181
:1037F000036007730123F381002373733046BDE830
:10380000F883054B4FF4C6720949054805F04EFF91
:103810000026F3E70026F1E740BA000818BB0008CD
:10382000B4B4000834BB00089CBB0008B0BB00085F
:10383000E0BB000870B50D46044698B1237B032B0E
:1038400018BF012B09D043B1022B06D02B4B40F2FD
:10385000F7122B492B4805F029FF2689AE4238D9AB
:10386000AE1B0DE0254B40F2F3122749254805F029
:103870001DFFE3E7238913FA86F32381246884B1CB
:1038800061898D4215D9691A8DB24FF6FE739E4239
:10389000F0DD1A4B40F20B221C491A4805F006FFD6
:1038A000E8E7164B40F20F221949164805F0FEFED4
:1038B000E6E7237B2BB98D4203D0637B13F0020F25
:1038C00008D065812581206808B1FFF765FE0023D7
:1038D000236070BD63681B1B15FA83F189B2204613
:1038E000FFF712FB04460028EBD1044B40F21D22E7
:1038F0000849044805F0DAFEE3E700BF40BA0008D3
:1039000014BC0008B4B40008FCBB000830BC0008BC
:1039100044BC00085CBC0008002302E001339BB2F9
:1039200000680028FAD118467047000070B108B549
:10393000C38901339BB2C38103B108BD044B40F27C
:1039400039320449044805F0B1FEF6E7704700BF7C
:1039500040BA000878BC0008B4B4000838B5044682
:103960000D46002918BF00280CD1154B40F24D32EE
:103970001449154805F09AFE38BD2B8921890B445E
:10398000238114462268002AF7D1228963899A424A
:1039900006D00B4B40F255320C490B4805F086FE21
:1039A000236833B1064B40F256320949064805F008
:1039B0007DFE2B89228913442381256038BD00BFF9
:1039C00040BA00088CBC0008B4B40008C4BC0008AD
:1039D000F4BC00082DE9F041002918BF002809D0E7
:1039E00007460D4602890B899A4203D34FF000081F
:1039F00046462CE0404B40F2BD324049404805F07D
:103A000055FE6FF00F00BDE8F0819B1B9CB226E0D5
:103A1000394B40F2CD323B49394805F047FE2DE0A5
:103A2000354B40F2CE323849354805F03FFE28E0AC
:103A30007B899E422CD01DB16A892B899A423CD049
:103A40001FB17A893B899A4245D0002D51D07B899C
:103A5000991B6C89A4EB08029142D6DB94B278687A
:103A6000696822464144304405F00DFE2644B6B252
:103A700044441FFA84F87B899E42C9D86B899845D3
:103A8000CED86B899845D3D32D684FF00008CFE787
:103A90003F68B7FA87F35B09002D08BF00230BB915
:103AA0000026C8E7144B4FF476721849144805F005
:103AB000FDFD6FF00F00BDE8F0812B68002BBFD03B
:103AC0000D4B40F2DE3212490D4805F0EFFD6FF06C
:103AD0000500BDE8F0813B68002BB6D0064B40F2F4
:103AE000E3320B49064805F0E1FD6FF00500BDE843
:103AF000F0810020BDE8F08140BA000840BD000818
:103B0000B4B4000870BD000888BD0008A4BD00085A
:103B1000B4BD00082DE9F04128B10F469046054696
:103B200061B1002627E01A4B40F2FE3219491A48CB
:103B300005F0BCFD00263046BDE8F081144B40F294
:103B4000FF321649144805F0B1FD0026F3E76A89F3
:103B5000D21A94B2A04500D244466968224619445C
:103B6000B81905F090FD2644B6B2A8EB04041FFA7C
:103B700084F800232D68B8F1000F18BF002DDAD0AB
:103B8000002BE4D069898B42E1D35B1A9BB2F1E749
:103B900040BA0008E0BD0008B4B4000800BE000848
:103BA00000E0C06828B1836F8B42FAD1002383679D
:103BB000F7E7704710B4002409E04FF44042144B7B
:103BC0001A800CE00134A4B2B4F5804F1ED2104A22
:103BD0001388591C11804FF6FF729342EDD00020DC
:103BE00003280ED80B4B53F820301B6833B1D98A09
:103BF000074A12889142E5D0DB68F7E70130C0B28E
:103C0000EEE7034B18885DF8044B70470020FAE795
:103C100008000020D4B3000838B5054650B12B7D0C
:103C2000012B05D00C4BC1220C490D4805F03EFD7F
:103C300001240EE0084BC0220A49094805F036FD70
:103C4000EDE7094B53F8243029461868FFF7A8FF21
:103C50000134032CF5D938BDBCBE0008F8BE0008FD
:103C6000B4B40008ECBE0008D4B3000838B504466C
:103C700040B1237D042B1AD0072B21D0032B09D070
:103C8000002512E0184B40F24D121849184805F073
:103C90000DFDEEE7204602F0D9FF054608B90523E1
:103CA0002375B5B1B5F1FF3F17D0284638BD204682
:103CB00002F0CCFF05460028F3D105232375F0E779
:103CC000204602F0C3FF05460028EAD109232375E8
:103CD000E7E7204603F016F8E7E7A37E43F0080382
:103CE000A3760025E1E700BFBCBE0008ECBE0008DB
:103CF000B4B400087047000070B505460C4671B1B9
:103D0000002C18BF002D39D02B7D53B99AB1002655
:103D1000032E14DC224B53F826301B681DE0214C87
:103D2000EEE7214B4FF411722049214805F0BEFC0B
:103D30006FF0050070BDFFF73DFF024608B314B1F8
:103D4000236803B12B60EA821A4B1A68EA601D608F
:103D500003F0EEFA002070BDDB686BB1D98A8A42AD
:103D6000FAD18BB1196891B1A4B12068A8B1814290
:103D7000F2D16FF0070070BD0136C9E76FF00500A2
:103D800070BD6FF0010070BD6FF0070070BD6FF087
:103D9000070070BD6FF0070070BD6FF0070070BDC9
:103DA000D4B3000844B40008BCBE000810BF00082B
:103DB000B4B40008A83B002070B51646037D23BBB1
:103DC0000446012B42D00220FFF71AFA05460028CC
:103DD00043D023690361E38AC38201230375637DB2
:103DE0004375237A0372A37A8372637A43722368DA
:103DF0000360E38AE3B11A4B1B689C4210D0ABB15D
:103E0000DA68944210D01346F9E7164B4FF42D723E
:103E10001549164805F04AFC6FF00E03002518E01E
:103E2000DA680F4B1A6001E0E268DA600023E360B1
:103E300021460120FFF7FEF90D4BAB610D4B1A68CF
:103E4000EA601D6003F074FA002302E005466FF09B
:103E5000080306B13370284670BD4FF0FF33F8E712
:103E6000A83B0020BCBE000838BF0008B4B400085E
:103E700037490008A43B002008B50022FFF79CFF4B
:103E800008BD000038B5456A048D2A19C16A438E01
:103E9000B3F5866F01D94FF486630B44D31A002B18
:103EA00002DB4485501A38BD6B1A002B03DD00225B
:103EB0004285104638BD04464D1BB5F5803F02D201
:103EC0006585002038BD044B4FF442720349044815
:103ED00005F0ECFBF4E700BFBCBE00085CBF0008C7
:103EE000B4B4000838B505460C46037D012B10D04C
:103EF000298D214489B22985B1F5066F11D94FF476
:103F000006632B852846FFF7BDFFB0F5067F1BDA59
:103F100038BD114B4FF448721049114805F0C6FBEB
:103F2000E6E70029EED12B7D092B18BF072B03D123
:103F30004FF406632B85E5E7074B40F22D32094924
:103F4000074805F0B3FBDDE7AB7E43F00203AB7639
:103F5000284602F0D7FEDBE7BCBE000878BF0008A9
:103F6000B4B40008A0BF000850B110B504464068C2
:103F700008B1FFF711FB21460320FFF75BF910BDE5
:103F8000704738B110B50468FFF7EEFF2046002CEB
:103F9000F9D110BD70474175704738B5054603200B
:103FA000FFF72EF9044650B128686968AA68EB68E3
:103FB00020606160A260E3606068FFF7B7FC2046A4
:103FC00038BD00B10161704780B138B504460D4677
:103FD000037D012B02D0C4F8805038BD044B40F261
:103FE000BB620449044805F061FBF4E7704700BF79
:103FF000BCBE0008C4BF0008B4B4000878B138B52E
:1040000004460D46037D012B01D0E56738BD044B06
:1040100040F2CC620349044805F048FBF5E77047DD
:10402000BCBE0008ECBF0008B4B4000880B138B5CD
:1040300004460D46037D012B02D0C4F88C5038BDD8
:10404000044B4FF4DC620449044805F02FFBF4E70D
:10405000704700BFBCBE000814C00008B4B400081C
:1040600010B1027D012A00D070478161FCE7000099
:1040700070B504460E461546037D012B03D0C4F8E7
:104080008860257770BD044B40F2037203490448F1
:1040900005F00CFBF3E700BFBCBE00083CC0000805
:1040A000B4B4000838B5037D002B18BF0A2B1AD012
:1040B000012B18D00446406F18B1FFF76DFA0023AA
:1040C0006367206FFFF75DFF002525674FF6FF73DD
:1040D0002386A06EFFF755FFE06EFFF752FFA5663F
:1040E000E566A4F8645038BD2DE9F04182B09C4AE1
:1040F0001368013313609B4A1378013313709A4B92
:104100001C68002618E0994B4FF47C729849994836
:1041100005F0CCFA16E0954B40F2F13296499548FD
:1041200005F0C4FA11E0914B40F2F2329349914804
:1041300005F0BCFA0CE0E468002C00F07B81237DE4
:10414000002BE0D0237D012BE5D0237D0A2BEAD084
:10415000627F844B1B789A42EDD06377237D022BDC
:1041600017D094F842200B2A63D894F895503DB3A9
:10417000013D834B1D442A7C94F894309A4202D925
:10418000013384F8943094F894309A4207D900258A
:1041900050E094F84220052AE3D901254AE0204660
:1041A00003F001F8002862D1002384F8943094F8D9
:1041B0009530062B5DD8013384F89530002539E021
:1041C000B4F93010002901DB01312186E16E89B399
:1041D000B4F93000B4F9401088422BDB022B0FD029
:1041E000B4F93C10B4F93E3003EBE10364490C2A06
:1041F00094BF8A1801F10C02127E9340A4F840305B
:1042000000232386B4F85C30B4F84820934228BFDA
:1042100013465B08A4F84A30618E4A0092B293427A
:1042200001D2A4F84A20A4F84810204602F01CFF4E
:1042300000E00125237D062B1DD0227A12F0080F05
:104240003FD0072B18BF042B6FD1454B1A68236A48
:10425000D21AD4F890104B4B0B444B48A0FB0303ED
:10426000B2EB531F14D90135EDB201272AE0002526
:10427000E0E70025DEE7A27E12F0100FDDD0216A14
:10428000374A1268521A282AD7D90135EDB2D4E735
:1042900094F896303D4800FB03133B49A1FB031300
:1042A000B2EB531F01D800270CE0204602F04FFF6D
:1042B00000283CD194F89630013384F896300027DA
:1042C00000E00027206F50B1254B1A68236AD21AEC
:1042D000B4F9403003EB430359008A4229D2237DCD
:1042E000032B2BD0092B32D0002D53D1E568E37E70
:1042F0000133DBB2E376227F9342C0F09880002343
:10430000E376234A1370D4F88830002B00F08780BE
:104310002146206998471E4B1B78002B7FF4EFAE97
:1043200000287ED026462C4606E70027CAE700274D
:10433000C8E7FFF726FE00232367D0E7216A084A73
:104340001268521A282ACDD90135EDB2CAE7226A7D
:10435000034B1B689B1AF02BC6D90135EDB2C3E79E
:10436000A03B0020050500209C3B0020BCBE0008AF
:104370005CC00008B4B4000888C00008B4C00008DD
:10438000D4B30008B84C0A00D34D6210F8240100E1
:10439000983B0020D4F88C502046FFF783FE26B3CC
:1043A000474B1B689C4218D0E368F36067BBD4F8A6
:1043B0001080E76821460120FEF73CFF0022414BB8
:1043C0001A701DB16FF00C014046A8473D4B1B7899
:1043D000002B7FF494AE3C46AEE63B4B40F2894264
:1043E0003A493B4805F062F9DEE7354B1B689C42D1
:1043F00006D0354B40F28D423649354805F056F926
:10440000E2682F4B1A60D1E7616AE06C238B01935D
:10441000E38A0093231D224602F0D0FDC7E7002067
:1044200079E7204602F06EFC26462C4684E62646B6
:104430002C4681E6284B1D6803E00123ABB92C46CE
:10444000ED68002D39D02B7D0A2B06D01E4B40F293
:10445000BD4222491E4805F029F92A6A204B1B68F3
:104460009B1AF02BE9D80023E8E72846FFF71AFE4D
:10447000A4B1194B1B689D4208D0EB68E360EE685D
:1044800029460120FEF7D6FE3546DAE70E4B40F20C
:10449000CB4214490E4805F009F9EEE70E4B1B68B4
:1044A0009D4206D0084B40F2CF420F49084805F024
:1044B000FDF8EA68084B1A60E1E702B0BDE8F08158
:1044C0009C3B0020983B0020BCBE0008E4C00008D4
:1044D000B4B4000810C10008AC3B00203CC1000887
:1044E000A03B00206CC1000894C1000810B50C4628
:1044F00003688B4205D04BB1DA68944204D013466E
:10450000F9E7DB68036001E0E268DA600023E3605A
:104510002046FFF7C7FD237D0A2B18BF012B03D0D0
:10452000A37E13F0010F21D1237D012B1AD0A36E9E
:1045300033B1124B40F253721149124805F0B6F8EC
:10454000E36E33B10D4B40F254720F490D4805F044
:10455000ADF8236F33B1094B40F256720B4909484D
:1045600005F0A4F800232375E38210BD43F0020395
:10457000A376204602F0C6FBD6E700BFBCBE00080B
:10458000BCC10008B4B40008D4C10008F0C10008E0
:1045900010B582B0044629B3037D072B18BF042B46
:1045A00020D1436FD3B1A37E13F0100F25D0238BFE
:1045B0000193E38A0093231D2246616AE06C02F0B6
:1045C000FDFC2046FFF76EFD3D4B1B689C421CD056
:1045D0000BB3DA6894421CD01346F9E7038DB3F5A8
:1045E000066FE0D1237D012B50D0002B33D0022B5E
:1045F00059D02046FFF73AFB46E0324B40F20F120B
:104600003149324805F052F8D1E7DA682C4B1A608C
:1046100001E0E268DA600023E36001222C4B1A70AB
:10462000237D042B09D02B4B1B689C420FD02146C5
:104630000120FEF7FFFD002026E00A232375264B0C
:104640001A68E2601C6002F073FE00201CE001F0BA
:104650000FFE002018E0E38A8BB1204B1B689C42C0
:1046600005D053B1DA68944205D01346F9E7DA6809
:104670001A4B1A6001E0E268DA600023E360214629
:104680000120FEF7D7FD002002B010BD2046FFF745
:10469000C3FA21461248FFF729FF21460220FEF700
:1046A000C9FD0020F0E721460548FFF71FFF012064
:1046B000074B18702146FEF7BDFD0020E4E700BF60
:1046C0009C3B0020BCBE000808C20008B4B400082F
:1046D000983B0020B03B0020AC3B0020A83B0020D2
:1046E000A43B002008B5037D012B03D0837E43F05B
:1046F000100383760121FFF74BFF08BD10B5084674
:1047000042B114461189FFF7EDFB2046FEF744FF46
:10471000002010BD0BB1002010BDFFF7E3FF10BD5E
:10472000F8B50446466F777B00234367D0F8805086
:10473000DDB1324601460069A8470546FDB917F0CC
:10474000200F22D0238DB3F5066F01D001332385CE
:10475000D4F880608EB100231A4621462069B04704
:1047600010F10D0F11D105460FE00023324601462E
:104770001846FFF7C3FF0546E0E72846F0E715F1C6
:104780000D0F02D066676FF004052846F8BD0000E3
:1047900070B51C4A1378013313701B4B1C6813E06F
:1047A00043F00203A376204602F0ACFAA37E23F086
:1047B0000303A37613E023F00803A3762046FFF754
:1047C00055FA10E0E5682C46DCB1627F0D4B1B7892
:1047D0009A42F7D06377A37E13F0010FE0D1A37E56
:1047E00013F0080FE7D1E568636F002BEBD0074E9D
:1047F000002333702046FFF793FF3378002BE2D07D
:10480000CBE770BD050500209C3B0020983B0020B5
:1048100008B5FFF7BDFF064A53780133DBB253708A
:1048200013F0010F00D108BDFFF75EFCFBE700BFEE
:10483000050500202DE9F04782B004460D46037DB2
:10484000012B1AD0237D0A2B1FD0D4F84C80D4F82A
:104850002490D4F88C602769002B41D1B4F816A0BD
:10486000BAF1000F46D02A4B1B689C4216D0DBB130
:10487000DA68944216D01346F9E7264B4FF4F072EB
:104880002549264804F012FFDCE721462448FFF7BB
:104890002DFE21460120FEF7CDFC1EE0DA681C4B00
:1048A0001A6001E0E268DA600025E560AA46E06E81
:1048B00008B1FFF766FBA06E08B1FFF762FB206F3F
:1048C00008B1FFF75EFBBDB921460120FEF7B2FC3F
:1048D0001EB16FF00C013846B04702B0BDE8F0875A
:1048E000B4F816A021460F48FFF700FE01220E4B38
:1048F0001A70DCE70025DAE7238B0193CDF800A0DE
:10490000231D22464946404602F058FBDCE700BF23
:10491000A83B0020BCBE000824C20008B4B40008B4
:10492000AC3B00209C3B0020983B002008B50121B7
:10493000FFF780FF08BD08B50846FFF7F7FF6FF0E7
:104940000C0008BD10B50A4B1B680024204600E08F
:10495000DB6843B1196A074A1268521A9442F7D8C1
:1049600014461846F4E708B1FFF7E0FF10BD00BF9A
:10497000AC3B0020A03B002070B5024610F0800F39
:1049800000D07F220B4B1B68002420461BB908B1C6
:10499000FFF7CCFF70BD5D7DAA4208D31E6A0649B1
:1049A0000968891B8C4202D82A460C461846DB68E7
:1049B000ECE700BF9C3B0020A03B002038B504463C
:1049C000084603E0C568FFF7B1FF284628B1026832
:1049D00023689A42F6D0C068F8E738BD38B5044677
:1049E000A0F10803DBB2012B06D90F4B40F2DC52D9
:1049F0000E490F4804F05AFE0E4B1B680021084672
:104A000000E0DB685BB11A7D9442FAD11D6A0A4A64
:104A10001268521B9142F4D811461846F1E710B1C2
:104A20000021FFF707FF38BDBCBE000858C20008D0
:104A3000B4B400089C3B0020A03B002038B50546DC
:104A40000120FEF7DDFB044668B354B39822002131
:104A5000204604F023FE65754FF48663A4F86030A9
:104A60004FF4066262852285FF22A2724FF406721D
:104A700062860622A4F84020E2874FF6FF72228663
:104A80000122A4F84820194A12682262184A1278B2
:104A90006277A4F84A30174BC4F88030164BC4F83C
:104AA0009030204638BDFFF74DFF0120FEF7A8FBF0
:104AB00004460028C9D10920FFF790FF0120FEF726
:104AC0009FFB04460028C0D10820FFF787FF012084
:104AD000FEF796FB04460028B7D12846FFF74CFFA7
:104AE0000120FEF78DFB0446AFE700BFA03B00208E
:104AF00005050020FD46000800DD6D0008B54020DA
:104B0000FFF79CFF08BD0000034B5868034A12687A
:104B100010445860704700BF08000020A03B0020F0
:104B200010B50446084603F009FB38B1438C3BB18D
:104B3000283B98B2A04228BF204610BD204610BD99
:104B4000204610BD08B370B50446036803B970BDB4
:104B50000E460E4B1968FFF731FF0D4B19682046C2
:104B6000FFF72CFF002EF2D03368002BEFD0094B5B
:104B70001B6800E01346002BE9D0DA681D68206846
:104B80008542F7D131681960F4E770479C3B0020FB
:104B9000A83B0020A43B00200D4B196881B11A46A8
:104BA0009B88D28893420BD310B45C1C0848848045
:104BB000DBB2D2B29B1ADBB2C85C5DF8044B704723
:104BC000034A93689188481C90800B44187D704775
:104BD0000805002038B51E4B9B89002B36D00546B2
:104BE00000221B4B9A801A4B9A889B899A422DD29D
:104BF000FFF7D2FF0128F6D040B302281CD1FFF7FF
:104C0000CBFF042822D1124A93880233928993421F
:104C10001CDCFFF7C1FF83B21B029CB2FFF7BCFF95
:104C200080B244EA00035A1E92B2B2F5067F01D365
:104C30004FF406736B86D6E7FFF7AEFF012805D960
:104C4000034B9A88104402389880CCE738BD00BFE7
:104C5000080500200E4B9B7B13F0100F16D010B5EB
:104C60000446837E13F0100F06D1D0F88C301BB1B0
:104C70006FF00E010069984721460648FFF736FCA1
:104C800021460120FEF7D6FA012010BD0020704712
:104C9000080500209C3B00201B4BDB7B13F0040F1E
:104CA00030D130B583B013F0020F1AD0164B19690A
:104CB000436ACA1A002A1ADB028D1344CB1A002B4E
:104CC00015DC11488368114A848A1D8801955B8828
:104CD0000093134604322144806902F06FF903B057
:104CE00030BD13F0010F02D0094B1B680362064B65
:104CF0009B8A002BF3D0837E43F00203837602F07D
:104D000001F8ECE7704700BF080500207C06002092
:104D1000A03B00203A4BDB7B13F0040F6FD170B542
:104D200082B0054613F0100F04D113F0020F11D119
:104D300002B070BD324B9C68324A9D8A19699869ED
:104D4000238801936388009313460432294402F0B8
:104D500035F9EDE7407DFFF771FE0446002840D0AD
:104D6000294B5A6902601B694360EB8AC382244E57
:104D7000B3681B88038303230375336901334362DC
:104D8000C362FFF7C1FE6065E0646064A0653369DB
:104D9000013B23652B692361A5672B7A03F00C0384
:104DA00023721A4B1A68E2601C6002F0C1FA0122F9
:104DB000174B1A702046FFF70DFFB368DB89A4F884
:104DC0005C30A4F85E30211D608EFFF7A9FE60867E
:104DD0001221204601F086FE60B9204601F092FFC4
:104DE000A6E7AB69002BA3D04FF0FF320021286962
:104DF00098479DE700212046FFF71CFD98E7704784
:104E0000080500207C0600206C0600209C3B00204A
:104E1000983B0020F8B505460C46C3689889FDF715
:104E200039FF10F0010F09D02046FFF7AAF800243F
:104E30002EE026682046FFF797F83446C4B12B8948
:104E4000144A12691344E1684A68208902449B1A93
:104E5000002B0DDB8889FDF71DFF10F0010FE8D056
:104E6000EF68BE890120FDF715FF3043B881E0E708
:104E700074B12B89074A11690B44E26852689B1A86
:104E8000002B05DD521A91B229816868FEF7D2FC29
:104E90002C60F8BD080500202DE9F0410446037D93
:104EA000032B79D9AE4BDB7B13F0100F00F0A08100
:104EB000B4F85C00626D8618216DA94B1B69CD1A90
:104EC000002D7CDB99426FD0A54989698A4271D057
:104ED000A34B9B69616C5A1A002A40F39580012A02
:104EE00004D4E26C9A1A002A40F3CC80204601F0E8
:104EF000CFFEA36E002B00F06C81994A9569DB68A8
:104F00005868FDF7CAFE0646A36E1F89DB689889BC
:104F1000FDF7C0FE10F0030F00F0598101233B4460
:104F20001E44AD1B002DC0F254818D4B9B69E26C79
:104F30009B1A002B00F34D81A56E2B68A366002BF6
:104F400000F03A81B4F862606868FEF7E5FC8642DA
:104F5000C0F035816868FEF7DFFCB4F86230181ADB
:104F6000A4F862002B897E4A918B0B4493832846D8
:104F7000FEF7FAFFB4F86230002BBAD0E36E002BD4
:104F8000B7D1A36E002BB4D1764B40F2DD42764907
:104F9000764804F08BFBACE7724B4FF481627449A6
:104FA000724804F083FB7DE76D498969511A002935
:104FB0008ADA04E06A4A9268D289904288D2684AC2
:104FC0009268D28991B2A4F85C20B4F85E00814264
:104FD00001D9A4F85E202365614B9B69636551B9D3
:104FE00094F89530002B7FF473AF84F8943001234C
:104FF00084F895306CE794F89530002B3FF468AF57
:10500000002384F8953063E7554A928A7ABB626D33
:10501000B4F85C000244964201D0002328E0B4F9C1
:105020003020002A2ADB8B4201D0002320E094F8B4
:105030004320531CDBB29A4201D284F8433094F8E7
:105040004330032B0AD9B4F84820638E13449BB233
:105050009A4215D2A4F84830012309E0032B01D06D
:10506000012305E0204602F044F8012300E000237C
:10507000002B7FF43EAF84F843303AE70023F7E794
:105080000123F5E7A27E12F0040F06D022F00402FD
:10509000A276B4F84A20A4F84820002184F84210EF
:1050A000B4F93C00E28F02EBE002A4F8402084F85F
:1050B00043106364237D032B0CD9B4F84820B4F863
:1050C0004A309A4256D2638E13449BB29A4201D21E
:1050D000A4F84830E36E002B63D0DB685868FDF716
:1050E000DCFD0546E36E1E89DB689889FDF7D2FD7D
:1050F00010F0030F53D0012333441D44184B9B6918
:10510000ED1A002D4DDCE56E2B68E366B4F86260A5
:105110006868FEF701FC864239D36868FEF7FCFB3D
:10512000B4F86230181AA4F862002B890C4A918BEB
:105130000B4493832846FEF717FFB4F86230002B28
:10514000C8D0E36E002BC5D1A36E002BC2D1054B96
:1051500040F2A7420449054804F0A8FABAE700BFA4
:105160000805002000C3000878C30008B4B4000894
:1051700034C30008638E03FB03F393FBF2F312FACC
:1051800083F39BB29A42A5D2A4F84830A2E7A94B78
:1051900040F29E42A849A94804F088FABDE70023DE
:1051A000AAE7E36E23B1002323860023E376A0E67B
:1051B0004FF6FF732386F8E7A4F86430C2E69D4BF0
:1051C00040F2D5429C499D4804F070FAC2E60023A3
:1051D000A5E6B4F860309A4A928B1344A4F8603084
:1051E000636B2BB1A26B96498969521A002A29DB9D
:1051F000934B9B8A002B00F03383227D062A00F21A
:105200002F83616A8E4A12698E1A012E04D41344C8
:10521000CB1A0133002B36DD521A002AC0F29280DD
:10522000874B1969626A8B1A002B06DB238D1344A6
:10523000CB1A0133002B40F38A80204601F028FD71
:10524000BDE8F0817F4A1268D21A92B2B4F93C10DC
:10525000A2EBE10292B213B2114409B2A187002B72
:105260000EDBB4F93E20A3EBA20312FA83F39BB248
:10527000E38703EBE103A4F8403000236363B7E75F
:1052800053421BB2EDE76E4B5D6A374695B147F668
:10529000FE739E4216DC6A4B586A43899E4243DD88
:1052A00003899E4216DC664B5B6A1A89B6B2921B72
:1052B00092B21CE05F4B40F23C5263495F4804F0FD
:1052C000F5F9E4E75B4B40F23D5260495B4804F07E
:1052D000EDF9E0E7574B40F23F525D49574804F083
:1052E000E5F9E0E7FF1A2A8100236B812D686B89BD
:1052F0009F42F7DC794209B22846FEF743F958B9D4
:10530000616A4F4B1A69521A188D10FA82F21A8587
:10531000DA6A1961516083E7464B40F24C524D49BD
:10532000464804F0C3F9EBE7714209B2FEF72AF9E7
:105330000028E5D03F4B40F2515246493F4804F027
:10534000B5F9DDE7A37E43F00203A37668E7914257
:1053500008D0204601F09CFC256F002D00F09E81B6
:105360000026CFE1364B1D8DDB6A9889FDF792FC54
:1053700010F0030F15D001232B449BB2304A9382C7
:10538000228D93420FD8236F002B00F0E2802C4B2C
:10539000DB6A9889FDF77EFC10F0010F60D1256F64
:1053A0006FE00023E8E7264BDB6A9889FDF772FC83
:1053B00010F0010F2ED1228D214B1A85DB6A9889BE
:1053C000FDF768FC10F0020F03D01D4A138D013B5E
:1053D00013851B4D298D686AFEF72CFA2E8DEB6A1A
:1053E0009889FDF757FC10F0030F37D001233344A1
:1053F0009BB2134A938212691344626A218D0A4454
:105400009342C0D00B4B40F27F5213490B4804F03B
:105410004DF9B8E70A4BDE6AB08920F47C55ADB28D
:10542000FDF738FC00F03E00FDF734FC2843B08166
:10543000C1E700BF00C3000850C30008B4B40008AF
:1054400008050020A03B002098C30008A8C300085E
:10545000B8C30008C8C30008DCC300080023C6E7BF
:10546000206F002875D003682367FEF77DFDF7E7FE
:1054700000233B44984A93822E682846FEF774FD29
:1054800035466DB3944A938A12691344E9684A68B1
:10549000288902449B1A002B22DB8889FDF7FAFB3E
:1054A00010F0010FE8D08C4BDB6A9889FDF7F2FB16
:1054B00010F0020FE0D1884ED6F82C80B8F80C70AE
:1054C0000120FDF7E7FB3843A8F80C00378DF36A9D
:1054D0009889FDF7DFFB10F0030FC9D00123C8E75F
:1054E000002D35D07C4B19699B8A0B44EA685268C1
:1054F0009B1A002B2CDD521A774B1A85DB6A988990
:10550000FDF7C8FB10F0020F03D0734A138D013B67
:105510001385714E318D706AFEF78CF9378DF36A01
:105520009889FDF7B7FB10F0030F36D001233B44F9
:105530009BB2694A938212691344EA6852689342A3
:1055400006D0664B40F2AF526549664804F0AEF8AB
:105550002567614B9A8A1B6913446362238D9A42C3
:105560001DD85D4D238DAA8A9B1A23852046FEF700
:1055700089FC6B6A1A8912B12B6300236B62564B4C
:10558000DB6A9889FDF786FB10F0010F35D0524A8F
:10559000937B43F0200393732FE00023C7E74F4B27
:1055A00040F2B95250494F4804F080F8D9E700233F
:1055B00035E0002341E0494B40F2DE524B49494877
:1055C00004F074F83CE0002343E0434B19630023EC
:1055D0006B60EB689889FDF75DFB10F0010F07D059
:1055E0003D4A937B43F020039373237D042B42D0E9
:1055F0002B6823672846FEF7B7FC256F002D3DD0AA
:10560000EA685368616A8B4238D133490B612E894D
:105610009089FDF73FFB10F0030FC8D001239A19C2
:10562000636A13446362268D2F89EB689889FDF7BE
:1056300031FB10F0030FBCD001233B449E42BAD390
:105640002E89EB689889FDF725FB10F0030FBAD07F
:1056500001239A19238D9B1A23852046FEF712FCFD
:1056600069680B89002BB4D01B4B186B0028ACD099
:10567000FEF774F9ABE707232375B9E7A37E13F0B0
:10568000010F06D003F0FE0343F00203A376BDE84A
:10569000F08143F00103A376BDE8F0811448FEF7E2
:1056A0007CFC2067BDE8F0810B4B1A8D2B899A4258
:1056B00040F2E6800E48FEF770FC0346002800F03A
:1056C000DF8036B1306029461846FFF7A3FBBDE8FE
:1056D000F0812067F7E700BF0805002000C300083D
:1056E00014C40008B4B4000850C4000870C4000812
:1056F000280500205A1A002A35DB2A682E46002A7F
:105700003DD01546002D00F0A980E86841685D4B4A
:105710001B699942C8D0002EECD0F26852689A1AE0
:10572000012AEAD45A1A0132002AE6DC5648FEF76A
:1057300034FC0446002800F0A380F36859683289DD
:105740000A44504B1B69D21A002A05DD5B1A99B234
:1057500031817068FEF76EF8346029462046FFF705
:1057600059FBBDE8F0814848FEF717FC002800F01F
:10577000878020672946FFF74DFBBDE8F0815B1A63
:10578000002B01DC1546BDE78089FDF783FA10F098
:10579000010F75D13C48FEF700FC286000286FD04F
:1057A000EB6859682A890A44364B1B69D21A002AC9
:1057B00005DD5B1A99B229816868FEF73BF8314A2A
:1057C000938A12691344626A218D0A449B1A002B42
:1057D00056DD2B68DB689889FDF75CFA10F0010F45
:1057E0002BD12A68616A238D0B449BB22549096934
:1057F0005B1A13812B6819895868FEF71BF82B6810
:105800001D89DB689889FDF745FA10F0030F23D056
:1058100001232B449BB21B4A938212691344626A90
:10582000218D0A4493422BD0184B40F27B621849D9
:10583000184803F03BFFBDE8F0812B68DF68B889AA
:1058400020F47C56B6B2FDF725FA00F03E00FDF7D5
:1058500021FA3043B881C4E70023DAE7BDE8F081DC
:10586000084B1B69626A991A002905DB218D0A44DD
:105870009B1A0133002B03DDA37E43F00203A376C2
:10588000BDE8F081080500202805002000C30008BD
:10589000DCC30008B4B4000870B582B00446A14B64
:1058A000DB7B13F0040F3DD0017D022912D0426A48
:1058B0009C4B1B699A421CD0981A00281BDB208D38
:1058C00002449B1A002B0CDD0023B3B900252846A7
:1058D00002B070BDC26C934B9B699A4207D0002303
:1058E000F3E7A37E43F00203A3760023EDE7012351
:1058F000EBE70123E9E70023E7E759B1894A937B06
:1059000043F008039373A37E23F00103A3766FF0A3
:105910000D05DCE7844B40F2E7228449844803F01C
:10592000C5FEEBE713F0020F0AD0037D023BDBB2AA
:10593000012B05D9837E43F0020383760025C6E759
:10594000A37E13F0100F02D17A4B1B682362002351
:1059500084F896302046FFF73DF9237D023B072B64
:1059600000F20882DFE813F00800970024013501F7
:105970008B012401B901EC016A4BDB7B03F01202BD
:10598000122A04D013F0100F6AD100259FE7626C31
:105990000132644989698A42F4D1624A1369581C08
:1059A0006062E06261649268D289A4F85C20A4F825
:1059B0005E20013B236504232375E118608EFFF709
:1059C000AFF86086430041F21C12934238BF134681
:1059D0008000834228BF0346A4F84830B4F8623000
:1059E0001BB3B4F86230013BA4F86230E56E25B316
:1059F0002B68E3662846FEF7B7FAE36E53B300233D
:105A0000238684F84230D4F884303BB30022214608
:105A100020699847054615F10D0F3FF458AFA37E56
:105A200043F00203A376002551E73F4B40F21A32C0
:105A300041493F4803F03AFED3E7A56E15B12B6804
:105A4000A366D7E7384B40F222323C49384803F08E
:105A50002DFEF4E74FF6FF732386D4E70025DAE73F
:105A6000304B9D68364A9E8A196998692B88019344
:105A70006B88009313460432314401F09FFA94F886
:105A80004230052B01D9002521E700252586204637
:105A900001F0EAFA1BE7234BDB7B13F0100F76D003
:105AA000204B9869636CC31A012B03D4E36CC31AAF
:105AB000002B0FDD1B4B9C68214A9D8A19692388A6
:105AC00001936388009313460432294401F076FA67
:105AD0000025FCE604232375A36F0BB19B699BB1E2
